:020000040800F2
:10000000B81400209D0100084B18000831140008A6
:1000100049180008CF020008E71F00080000000090
:1000200000000000000000000000000005010008C2
:10003000D90400080000000049010008F11C000874
:10004000B7010008B7010008B7010008B7010008B0
:10005000B7010008B7010008B7010008B7010008A0
:10006000B7010008B7010008B7010008B701000890
:10007000B7010008B7010008B7010008B701000880
:10008000B7010008B7010008B7010008B701000870
:10009000B7010008B7010008B7010008B701000860
:1000A000B7010008E91D0008B7010008B701000802
:1000B000B7010008B7010008B7010008B701000840
:1000C000B7010008B7010008B7010008B701000830
:1000D000B7010008B7010008B7010008B701000820
:1000E000B7010008B7010008B7010008DFF810D019
:1000F00000F0CCF800480047E9240008AFF3008086
:10010000B8140020224B19680868B0E8F00F80F39B
:100110000988BFF36F8F4FF0000080F311884EF015
:100120000D0E70470000000006480068006880F36C
:10013000088862B661B6BFF34F8FBFF36F8F00DFE1
:1001400000BF00BF08ED00E0EFF30980BFF36F8F41
:100150000F4B1A6820E9F00F106008B54FF05000FF
:1001600080F31188BFF34F8FBFF36F8F02F032FE21
:100170004FF0000080F31188BDE808401968086856
:10018000B0E8F00F80F30988BFF36F8F704700BFAE
:1001900020000020EFF305807047000006488047EC
:1001A00006480047FEE7FEE7FEE7FEE7FEE7FEE75C
:1001B000FEE7FEE7FEE7FEE7E51D0008ED000008AC
:1001C000202A04DB203A21FA02F00021704721FAAC
:1001D00002F3D040C2F12002914008431946704713
:1001E00040EA01039B0703D009E008C9121F08C0B9
:1001F000042AFAD203E011F8013B00F8013B521E39
:10020000F9D27047D2B201E000F8012B491EFBD2AF
:1002100070470022F6E710B513460A460446194611
:10022000FFF7F0FF204610BD2DE9F05F05460020E6
:1002300092469B4688460646814640241BE0284657
:10024000414647462246FFF7BBFF53465A46C01A6F
:10025000914110D311461846224600F029F82D1A74
:1002600067EB01084F4622460120002100F020F8EC
:1002700017EB00094E41201EA4F10104DFDC4846C3
:1002800031462A464346BDE8F09F0000064C074D24
:1002900006E0E06840F0010394E807009847103456
:1002A000AC42F6D3FFF726FF60400008804000080C
:1002B000202A04DB203A00FA02F100207047914026
:1002C000C2F1200320FA03F3194390407047FEE780
:1002D00030B585B0002002900D48816941F00801D9
:1002E000816180694FF4805400F00800049001207F
:1002F000CDE900400220074D03906946284600F0F2
:1003000001F901222146284600F0F1F905B030BD7F
:1003100000100240000C01402DE9F0410025144F6F
:100320002C464FF001084FF480563146384600F015
:10033000D9F90028F9D0282000F0A6F8314638462F
:1003400000F0D0F901280BD1C4F1070108FA01F03F
:100350002843C5B23146384600F0C4F90128F9D027
:10036000641CE4B2082CE0D32846BDE8F08100000C
:10037000000C01402DE9F0410446002739460120D8
:1003800000F064F8304E4FF4805500222946304684
:1003900000F0ADF9142000F069F80122294630463A
:1003A00000F0A5F91E2000F06FF80121002000F0F8
:1003B0004DF806E07F1CFFB2642F3FD8012000F00B
:1003C00063F82946304600F08DF90128F2D0002765
:1003D00006E07F1CFFB2642F30D8012000F054F8F3
:1003E0002946304600F07EF90028F2D0002706E0CA
:1003F0007F1CFFB2642F21D8012000F045F8294668
:10040000304600F06FF90128F2D0FFF785FF207029
:10041000FFF782FF6070FFF77FFFA070FFF77CFFA0
:10042000E070FFF779FF207121786278E37811445A
:10043000A2781A441144C9B2884202D00120BDE812
:10044000F0810020FBE70000000C01401FB54FF4D5
:1004500080520092CDE901010220039069460248D2
:1004600000F050F81FBD0000000C014070B50546BB
:1004700000244FF47A7603E0304600F005F8641C5F
:10048000AC42F9D370BD00000649074A0968B1FBC8
:10049000F2F141430548426843689B1A8B42FBD303
:1004A000704700001C00002040420F00001000E0D8
:1004B00010B501F063FC0648016841F080710160ED
:1004C000044800214160016841F00101016010BD54
:1004D000FCED00E0001000E0704772B6FEE700009F
:1004E00070B5044600F008F90546601C02D00448C7
:1004F0000078044400F000F9401BA042FAD370BD1C
:10050000100000202DE9F84FDFF8B8910024A9F180
:10051000040B23460F2709F1040AABF1040EC9E0CE
:100520000125A5402A40AA427DD1674ED1F804C0DA
:10053000ACEB0608B44532D014DCBCF1030F3AD062
:1005400009DCBCF1000F2AD0BCF1010F1CD0BCF1BA
:10055000020F31D11DE0BCF1110F17D0BCF1120F09
:100560002AD119E0B8F5881F19D006DCB8F5803F0C
:1005700015D0B8F5801F1FD111E0B8F5001F0ED0BF
:10058000B8F5041F18D10AE0CB6815E0CB681B1D35
:1005900012E0CB6808330FE0CB680C330CE08B68BB
:1005A0002BB1012B4FF0080303D0456104E0042375
:1005B00002E0056100E00023FF2A01D8064601E0C1
:1005C00000F104064FEA840501D9A5F12005D6F80B
:1005D000008007FA05FC28EA0C0803FA05F548EA4A
:1005E0000508C6F800804D68ED0062D5374DAE694C
:1005F00046F00106AE61AD6924F0030605F0010581
:100600000095334D06EB050CDCF80850A607360FB5
:1006100007FA06F825EA0805DFF8B880404503D157
:100620004FF0000817E044E0DFF8AC80404502D10D
:100630004FF001080FE0DFF8A480404502D14FF0F1
:10064000020808E0DFF89880404502D14FF0030827
:1006500001E04FF0040808FA06F848EA0508CCF86B
:1006600008804D68D9F80060ED024D4601D516436B
:1006700000E096432E604D68DAF80060AD02554602
:1006800001D5164300E096432E604D68DBF800600C
:10069000AD035D4601D5164300E096432E604D68DC
:1006A000DEF80060ED03754601D5164300E0964381
:1006B0002E60641C0D682A46E5407FF431AFBDE82A
:1006C000F88F0000080401400000111000100240E3
:1006D0000000014000080140000C014000100140F2
:1006E000001401408068084000D0012070470AB122
:1006F000016170470904FBE701488068704700000A
:100700001000002070B5040025D094F83D000025AD
:1007100020B984F83C50204600F04EF9242084F89B
:100720003D002068016821F0010101602068016836
:1007300041F4004101602068016821F4004101603A
:1007400000F0E2FA4D4A6168914201D84C4900E05C
:100750004C49884201D2012070BD4B492368B0FB4F
:10076000F1F15E6826F03F060E435E6063689342D7
:1007700006D94FF4967359434FF47A73B1FBF3F1F2
:100780002368491C1E6A26F03F06314319626168DE
:10079000914210D84900401EB0FBF1F2521CC2F346
:1007A0000B02042A01D2042022E0B0FBF1F0401C2D
:1007B000C0F30B001CE0A268F2B301EBC10303EB32
:1007C0000116431EB3FBF6F35B1C43F480431B0589
:1007D00049D092B301EBC10202EB0111401EB0FB04
:1007E000F1F0401CC0F30B0040F4804040F40040A6
:1007F0002168CA694CF6FF739A431043C861D4E973
:10080000071001432068026822F0C0021143016012
:10081000D4E9030101432068826848F2FF339A4318
:1008200011438160D4E9050108432168CA6822F0B8
:10083000FF021043C86001E00EE016E02068016886
:1008400041F0010101602564202084F83D0025630A
:1008500084F83E50002070BD01EB4106431EB3FBFF
:10086000F6F35B1CB3E70120C2E701EB4101401E38
:10087000B0FBF1F0401CC0F30B00B7E7A08601000D
:1008800080841E0000093D0040420F002DE9F84F12
:100890001F4690468A460446DDF82890FFF72CFF55
:1008A000054694F83D0020287FD1192301224049B4
:1008B0002046009500F04EFE002876D194F83C00CA
:1008C000012872D0012084F83C0020680168C90723
:1008D00003D1016841F0010101602068016821F441
:1008E00000610160212084F83D00102084F83E0062
:1008F00000262664C4F824806785608D20852D48F5
:10090000E0622B464A465146204600F0A9FD90B9C8
:10091000206841698069009036E02A4649462046B1
:1009200000F0BEFE50B1206C042804D1206801689C
:1009300041F4007101600120BDE8F88F606A216810
:1009400000780861606A401C6062618D491E6185A3
:10095000218D491E89B2218522685369DB435B07DB
:100960000BD451B100781061606A401C6062608DE8
:10097000401E6085208D401E20852A46494620461F
:1009800000F0BCFD0028CED1208D0028C5D154F840
:100990003D0B016841F400710160202004F81E093C
:1009A000E67766770020C7E7FFE70220C4E700008C
:1009B000020010000000FFFF10B586B0002100917A
:1009C00001910291039100680F4988421AD10F4C9E
:1009D000A06940F00800A061A069694600F0080025
:1009E0000490C0200090122001900320039008483A
:1009F000FFF788FDE06940F40010E061E06900F471
:100A00000010049006B010BD0054004000100240D9
:100A1000000C0140024881680278114481607047EF
:100A200010000020074810B5016841F01001016076
:100A3000032000F0A1F80F2000F006F800F04AF8BB
:100A4000002010BD0020024030B505461C4887B08C
:100A5000816941F400618161806906A900F4006048
:100A6000009001A800F030F900F05EF91549164A2F
:100A7000B0FBF1F11548491E0260416040F2E732D7
:100A80000021C0E903218160816100F015FB0400B1
:100A900012D10E4800F03EFB04000DD1192000F0E9
:100AA0003DF8102D07D200222946192000F044F805
:100AB0000748056000E0012407B0204630BD000073
:100AC0000010024040420F00002C01407C03002037
:100AD000140000200F4808B5816941F001018161CF
:100AE000816901F001010091C16941F08051C1614A
:100AF000C069002200F0805000900F21901E00F08D
:100B00001BF80548416821F0E06141F00071416047
:100B100008BD00000010024000000140002809DB71
:100B200000F01F02012191404009800000F1E02007
:100B3000C0F8001170470000F0B40E4B1B680C4663
:100B4000C3F30223C3F10705042D00D90425191DA1
:100B5000072901D2002300E0DB1E012606FA05F179
:100B6000491E214099409E40761E16403143F0BCFC
:100B700001F05EBA0CED00E0064900F007020868DB
:100B80004FF6FF03184040EA0220034A1043086072
:100B9000704700000CED00E00000FA052DE9F04779
:100BA0000F46050061D0434E306800F00700B842A0
:100BB00009D2306820F0070038433060306800F018
:100BC0000700B84251D128683B4C810712D5400735
:100BD00003D5606840F4E06060602878000703D5C2
:100BE000606840F4605060606068A96820F0F000C0
:100BF000084360602878C00728D06868012810D0B2
:100C00002168022810D0890700292EDA616821F0B6
:100C1000030101436160FFF76FFD804641F28839AF
:100C20000DE021688903EFE78901EDE7FFF764FD37
:100C3000A0EB0801494502D90320BDE8F0876068B0
:100C4000696800F00C00B0EB810FEFD1306800F064
:100C50000700B8420BD9306820F0070038433060F5
:100C6000306800F00700B84201D00120E5E728789D
:100C7000400705D56068E96820F4E06008436060DB
:100C80002878000706D56068296920F4605040EA9A
:100C9000C100606000F058F86168084AC1F30311B0
:100CA000515CC8400649086006480068FFF7CCFE62
:100CB0000020C2E700200240001002401E40000851
:100CC0001C000020140000200F2202600C4A536810
:100CD00003F003034360536803F0F0038360536839
:100CE00003F4E063C36052684FF4E06303EAD202A6
:100CF00002610448006800F00700086070470000C7
:100D0000001002400020024004480549006849687C
:100D1000044AC1F30221515CC84070471C00002006
:100D2000001002402E400008044805490068496848
:100D3000044AC1F3C221515CC84070471C00002026
:100D4000001002402E4000080E4A51680E4801F083
:100D50000C03042B11D0082B0FD10C48C1F3834393
:100D6000C903C05C0AD55168084AC1F34041921ECC
:100D7000515C054A5043B0FBF1F0704704494843C9
:100D8000704700000010024000127A000E40000878
:100D900000093D002DE9F84F040070D02078C04DC7
:100DA000C00749D06868C0F38100012807D068688F
:100DB000C0F38100022809D16868C00306D52868FD
:100DC000800339D560680028E7D035E06068B0F569
:100DD000803F0BD010B1B0F5A02F11D0286820F4BF
:100DE00080302860286820F4802002E0286840F4E1
:100DF00080302860606890B1FFF77EFC06460AE00C
:100E0000286840F480202860F0E700BFFFF774FCFA
:100E1000801B642873D828688003F7D50CE0FFF79F
:100E20006BFC064605E000BFFFF766FC801B6428EC
:100E3000F0D828688003F7D420789A4E80074FF0C6
:100E400001094FF0000839D5686810F00C0F07D081
:100E50006868C0F38100022809D16868C00306D41D
:100E60002868800714D52069012808D110E020697E
:100E7000B0B1C6F80090FFF73FFC074605E00AE175
:100E8000FFF73AFCC01B0228C4D828688007F7D5B2
:100E90002868616920F0F80040EAC10028600DE090
:100EA000C6F80080FFF728FC074604E0FFF724FCA3
:100EB000C01B022823D828688007F7D420780007B1
:100EC0002CD57948A169D9B1C0F80090FFF714FC7E
:100ED000074604E0FFF710FCC01B02280FD8686A21
:100EE0008007F7D571484FF4FA510068B0FBF1F074
:100EF000009000BF0098411E0091FAD20EE080E001
:100F0000C0F80080FFF7F8FB074604E0FFF7F4FBAA
:100F1000C01B022875D8686A8007F7D4207840077C
:100F200060D5E8690027C00008D4E86940F0805027
:100F3000E861E869012700F0805000905C48016892
:100F4000C90513D40168834641F480710160FFF73D
:100F5000D3FB824606E000BFFFF7CEFBA0EB0A0002
:100F600064284ED8DBF80000C005F5D5E0680128FC
:100F70000AD008B1052813D0286A20F001002862A1
:100F8000286A20F0040002E0286A40F0010028628C
:100F9000E06841F2883B98B1FFF7AEFB82460BE078
:100FA000286A40F004002862EEE700BFFFF7A4FBC8
:100FB000A0EB0A0159455AD8286A8007F6D50CE0FB
:100FC000FFF79AFB824605E0FFF796FBA0EB0A01CC
:100FD00059454CD8286A8007F6D41FB1E86920F03B
:100FE0008050E861E06988B36968C1F38101022932
:100FF00044D00228C6F8608004D0FFF77DFB044689
:1010000038E034E0FFF778FB074604E0FFF774FBB5
:10101000C01B02282BD828688001F7D4206AB0F5BD
:10102000803F05D16868A16820F4003008436860FB
:10103000D4E908010843696821F474110843686021
:10104000C6F86090FFF758FB044606E025E000BFB5
:10105000FFF752FB001B022809D828688001F7D54A
:101060001BE000BFFFF748FB001B022802D903204A
:10107000BDE8F88F28688001F4D40EE00128F7D08D
:101080006868226A00F48031914204D1616A00F4F8
:101090007010884201D00120EAE70020E8E7000054
:1010A0000010024000004242800442421C00002026
:1010B000007000407047704710B5040003D094F8EA
:1010C0003D0010B107E0012010BD002084F83C0075
:1010D000204600F01EF8022084F83D00211D206803
:1010E00000F088FE012084F8460084F83E0084F871
:1010F0003F0084F8400084F8410084F8420084F8FE
:10110000430084F8440084F8450084F83D00002042
:1011100010BD704790F83D10012901D001207047A3
:10112000022180F83D100168CA6842F00102CA60DD
:1011300000680B49884208D0B0F1804F05D00949BA
:10114000884202D00849884204D1816801F0070131
:10115000062903D0016841F00101016000207047B9
:10116000002C0140000400400008004070472DE9B9
:10117000F04104460068C66805694FF00007A907FA
:1011800013D5B10711D5F91E016101202077206820
:1011900080698007204602D0FFF7E8FF04E000F0F6
:1011A0007EF8204600F07CF82777680716D5700790
:1011B00014D521686FF004000861022020772068B0
:1011C000806910F4407F204602D0FFF7CFFF04E093
:1011D00000F065F8204600F063F82777280715D55A
:1011E000300713D521686FF00800086104202077CC
:1011F0002068C0698007204602D0FFF7B7FF04E0EF
:1012000000F04DF8204600F04BF82777E80616D599
:10121000F00614D521686FF01000086108202077CF
:101220002068C06910F4407F204602D0FFF79EFF7F
:1012300004E000F034F8204600F032F82777E807A1
:1012400008D0F00706D021686FF001000861204641
:1012500000F028F8280608D5300606D521686FF07A
:10126000800008612046FFF725FF680608D5700654
:1012700006D521686FF040000861204600F01CF898
:10128000A8060AD5B00608D521686FF020000861CD
:101290002046BDE8F041FFF70EBFBDE8F081704782
:1012A0007047000000680349884201D1FFF7B2BBD4
:1012B00070470000002C0140704770B5040004D056
:1012C00094F84100002510B106E0012070BD84F8BB
:1012D0004050204600F024F8242084F84100206883
:1012E000C16821F40051C160204600F0E7FD20688C
:1012F000016921F4904101612068416921F02A01CE
:1013000041612068C16841F40051C16065642020DA
:1013100084F8410084F842006563002070BD00003D
:1013200030B585B0002400940194029403940068C1
:101330001449884224D11448816941F48041816173
:10134000816901F480410491816941F00401816166
:1013500080690E4D00F0040004904FF4007000907E
:10136000022001900320039069462846FFF7CAF83F
:101370002815CDE90004694628460294FFF7C2F813
:1013800005B030BD003801400010024000080140A7
:101390002DE9F843044690F84100984616460D465C
:1013A000202802D00220BDE8F88385B17EB100205C
:1013B0006064212084F84100FFF79EF9A6848146ED
:1013C000E684A0682027B0F5805F02D003E001200A
:1013D000E9E7206910B12E4600250EE000260CE05A
:1013E0008021204600F0C6FDA8B9C6B116F8010B51
:1013F00021684860E08C401EE084E08C4B464FF052
:101400000002CDF800800028EAD14FF040012046CC
:1014100000F0B0FD40B184F841700320C3E735F817
:10142000020BC0F30800E3E784F841700020BAE73C
:10143000FEE701684A69D24352050FD46FF4806217
:101440004A61002140F8301F2022427381730269F3
:1014500042F00402026101730120704700207047CE
:10146000F8B50446C06A1E460D461746082807D040
:10147000012805D010F5803F02D0206B122804D13E
:101480002068016841F480710160134600224FF02A
:1014900001112046009600F05DF840B12068006818
:1014A000C00502D54FF4007020640320F8BD206908
:1014B000B0F5804F0ED00620216800EAD51040F02C
:1014C000F000086133463A460B49204600F08AF89E
:1014D00078B902E005F0FE0000E0E8B2216808619A
:1014E000054933463A46891F204600F07BF800281C
:1014F000DCD00120F8BD00000800010070B51646E0
:101500000D4604461EE02046FFF793FF08B1012078
:1015100070BD681C16D0FFF7EFF8801BA84200D8FA
:1015200085B920684069C04340070BD5002044F8C6
:10153000300F20216173A073216941F020012161E6
:101540002073E4E720684069C0434007DBD40020F3
:1015500070BD00002DE9F047984617460D46044639
:10156000C1F30746DDF820902AE000BFB8F1FF3F45
:1015700026D0FFF7C1F8A0EB0901414502D8B8F128
:10158000000F1DD12068012E16D0806925EA0000C9
:101590000004000C12D00020B84211D1002044F801
:1015A000300F20216173A073216941F02001216176
:1015B00020730120BDE8F0874069E7E70120EBE7F1
:1015C0002068012E0AD0806925EA00000004000C82
:1015D00006D00020B842C9D00020EBE74069F3E70D
:1015E0000120F7E72DE9F047984616460D460446D8
:1015F0004FF000094FF0200AC1F3074723E02068AD
:101600004069C043400515D42068016841F4007169
:10161000016021686FF480604861C4F8309084F8FC
:101620003DA084F83E90216C41F00401216484F8CF
:101630003C9021E0701C06D0FFF75EF8A0EB08009C
:10164000B04203D816B1012F1FD021E02068012F2E
:1016500015D0806925EA00000004000C18D000BFF6
:1016600044F8309F84F80DA084F80E90216941F071
:101670002001216184F80C900120BDE8F0874069C9
:1016800025EA00000004000CEAD12068406901E06E
:101690002068806925EA00000004000CAFD1ECE767
:1016A00070B516460D4604461EE02046FFF7C1FE03
:1016B00008B1012070BD681C16D0FFF71DF8801B13
:1016C000A84200D885B920684069C04300060BD500
:1016D000002044F8300F20216173A073216941F08C
:1016E000200121612073E4E720684069C0430006BF
:1016F000DBD4002070BD000030B585B00024174851
:101700000094019402940394816941F01001816175
:10171000816901F010010491816941F0200181612A
:10172000816901F020010491816941F00401816126
:1017300080690B4D00F0040004900122022128462C
:10174000FEF7D5FF02210120CDE90010CDE90241CD
:1017500069462846FEF7D6FE05B030BD00100240AF
:101760000008014010B59AB01C2217496846FEF7E0
:1017700037FD0021684600F0F1FE144C12491C228E
:1017800020601C3107A8FEF72BFD002107A800F000
:10179000E5FE0D4960601C2238310EA8FEF720FDE1
:1017A00000210EA800F0DAFE074BA06054330DF1C3
:1017B000540C0FCB8CE80F00002115A800F0BBFEE5
:1017C000E0601AB010BD0000A83F00080000002033
:1017D0000D4810B50B4901600C49416000214FF4E0
:1017E00080428160C0E9031241618161C16101628F
:1017F000FEF788FF002803D0BDE81040FEF76DBE5D
:1018000010BD0000005400408C000020A0860100A4
:101810000C4810B50A4901604FF4E13141600021E4
:1018200081600C22C160C0E904128161C161FFF7CF
:1018300044FD002803D0BDE81040FEF74EBE10BDA9
:1018400000380140E0000020FEE7FEE71CB5002163
:101850008DF80410642100914100002301AA03487F
:10186000FFF714F8002800D001201CBD8C000020D8
:101870001FB50446C37882780AA1684600F0C4FB0D
:101880006A460521012000F044F96378227805A119
:1018900002A800F0B9FB02AA0521022000F039F9E4
:1018A0001FBD00002532642E2564000010B5A0B0D5
:1018B000044680216846FEF7ACFC2246802168463B
:1018C000FEF7A0FC00240021204600F08CF88022C6
:1018D0006946402000F05CF9641CE4B2082CF2D3A5
:1018E00020B010BD10B56420FEF7FAFD3C20FFF7D4
:1018F000ADFF0028FAD1AE2100F098F92021002098
:1019000000F094F90221002000F090F9B0210020AD
:1019100000F08CF9A121002000F088F9C8210020F6
:1019200000F084F90021084600F080F91021002021
:1019300000F07CF94021002000F078F9812100209E
:1019400000F074F9FF21002000F070F9A1210020BF
:1019500000F06CF9A621002000F068F9A821002011
:1019600000F064F93F21002000F060F9A42100207C
:1019700000F05CF9D321002000F058F9002108465E
:1019800000F054F9D521002000F050F9F02100209A
:1019900000F04CF9D921002000F048F92221002064
:1019A00000F044F9DA21002000F040F91221002073
:1019B00000F03CF9DB21002000F038F92021002064
:1019C00000F034F98D21002000F030F914210020BE
:1019D00000F02CF9AF21002000F028F9BDE81040FC
:1019E0000020FFF763BF08B5B0308DF8000010206D
:1019F00040EA11108DF8010001F00F008DF802008F
:101A000003226946002000F0C3F808BD2DE9F0412B
:101A10000F460646A2F12005062B20D0082B1CD12C
:101A2000FFF7E1FF1648002400EB05154020295D73
:101A300000F0FCF8641CE4B2082CF7D3761CF0B27A
:101A40003946FFF7D0FF00242819017A402000F022
:101A5000EDF8641CE4B2082CF6D3BDE8F081FFF782
:101A6000C2FF084905EB4500002401EB400540207A
:101A7000295D00F0DBF8641CE4B2062CF7D3ECE738
:101A8000B63900087C3700082DE9F0411D4617469D
:101A900088460646FFF7A7FF002405EB47154020C0
:101AA000295D00F0C3F8641CE4B2102CF7D3761C57
:101AB000F0B24146FFF797FF00242819017C40202F
:101AC00000F0B4F8641CE4B2102CF6D3BDE8F08149
:101AD0000907090E4006000E014BFFF7D5BF0000B5
:101AE0007C3600082DE9F0411E4615460F4680461B
:101AF000002409E004FB0670C1B2334640466D1C69
:101B0000FFF784FF641CE4B22A78002AF2D1BDE812
:101B1000F081C906090E4006000E0823FFF7E2BF58
:101B200010B5002202211046FFF7D2FF0122032147
:101B30000020FFF7CDFF022204210020FFF7C8FF9D
:101B4000032205210020FFF7C3FF0422002101200A
:101B5000FFF7BEFF012105220846FFF7B9FF0BA2E0
:101B600004210120FFF7D5FF062200210220FFF704
:101B7000AFFF072201210220FFF7AAFF0421BDE8E1
:101B8000104002A20220FFF7C4BF00003A0000008C
:101B900030B5C1B014460546FF2A04D911460EA03F
:101BA00000F022FA15E08DF804500DF10500FEF763
:101BB00017FB64200090601C83B201AA78210E48B4
:101BC000FEF764FE002805D0224629460BA000F04F
:101BD0000BFA012041B030BD4F4C45445F5772694C
:101BE000746542756666657220CAFDBEDDB9FDB3D7
:101BF000A4282575290D0A008C0000204F4C45446F
:101C00005F577269746542756666657220D0B4C8A4
:101C1000EBCAA7B0DCA3BA636D643D3078253032DF
:101C200058206C656E3D25750D0A00007CB58DF859
:101C30000400054664200C468DF805100090022330
:101C400001AA78210548FEF721FE002805D022468A
:101C5000294603A000F0C8F901207CBD8C000020BB
:101C60004F4C45445F57726974654279746520D062
:101C7000B4C8EBCAA7B0DCA3BA636D643D30782565
:101C800030325820627974653D3078253032580DF5
:101C90000A0000001CB5084D4FF47A746846FEF740
:101CA00069FB28B900231A466946E86801F0ACF9D7
:101CB000204600F034FCF1E7000000201CB5FFF7DF
:101CC0002FFF084D4FF0FF3422466946E86801F0C7
:101CD0004BFA012802D16846FFF7CAFD012000F047
:101CE0001EFCF1E700000020012000F018FCFBE7DB
:101CF00010B5502080F31188BFF34F8FBFF36F8F63
:101D000001F06EFB18B104494FF0805008600020CC
:101D100080F3118810BD000004ED00E030B58FB0F5
:101D200028216846FEF775FA14210AA8FEF771FA11
:101D300001210804CDE90010002402940225049139
:101D4000CDE907504FF4E01009906846FFF722F8FC
:101D500008B172B6FEE70F20CDE90A054FF48060A6
:101D6000CDE90C4002210AA80E94FEF717FF0028C7
:101D700001D072B6FEE70FB030BD0000144910B5B7
:101D80004868144A10F00C03134803D0042B01D008
:101D9000082B09D002604968104AC1F30311515C55
:101DA0000268CA40026010BD4A684B6802F47012B3
:101DB0004FF0020413F4803F04EB924202D04B68D0
:101DC0009B0301D5064B00E0024B5A43E2E70000BB
:101DD0000010024000127A001C0000201E40000883
:101DE00000093D00704700000148FFF7C0B900003E
:101DF0007C030020F0B50268194B1A4C1A4D4FF0C5
:101E00008047984205D0B84203D0A04201D0A842F2
:101E100003D122F070064A683243984205D0B84296
:101E200003D0A04201D0A84203D122F44074CA6872
:101E300022434C6922F08002224302608A68C26217
:101E40000A688262984201D10969016301214161F6
:101E50000169C90703D0016921F001010161F0BDE9
:101E6000002C0140000400400008004001680C31D3
:101E700051E8002F22F4907241E80023002BF5D1A5
:101E80000168143151E8002F22F0010241E80023DB
:101E9000002BF5D1016B012909D101680C3151E802
:101EA000002F22F0100241E80023002BF5D1202161
:101EB00080F84210002101637047000070B50446AD
:101EC00000680169E26821F4405111430161216910
:101ED000A0680843616908432168CA6841F20C633D
:101EE0009A430243CA6020684169A26921F44071A3
:101EF000114341611E492068884202D1FEF714FF58
:101F000001E0FEF701FF00EBC00101EB0012606889
:101F100064218000B2FBF0F3B3FBF1F36FF018061D
:101F20007343B2FBF0F5B2FBF0F605EB8305322309
:101F300003EB0515B5FBF1F5B6FBF1F605F0F00581
:101F400005EB0615B2FBF0F6B2FBF0F0B0FBF1F0DA
:101F50006FF01802504306EB800003EB0010B0FB5B
:101F6000F1F0216800F00F002844886070BD000087
:101F7000003801402DE9F843984617460D460446BF
:101F8000089E24E0701C22D0FEF7B6FBA0EB0800F0
:101F9000B0421AD8CEB12068C168490717D5802D44
:101FA00015D0402D13D00168C94309070FD401682B
:101FB0000025406800902046FFF758FF0820606425
:101FC00084F840500120BDE8F8830320FBE7206837
:101FD000006835EA000004D00020B842D2D00020CA
:101FE000F1E70120F9E7FEE70FB4054B10B503A9AF
:101FF000044A029800F03CF810BC5DF814FB0000A5
:10200000D1240008880000200FB4084B10B504A9A3
:1020100002AA039800F02CF8044602A9002000F060
:1020200052FA204610BC5DF814FB0000C7240008DB
:102030000907090E002804DB00F1E02080F80014F5
:10204000704700F00F0000F1E02080F8141D704789
:1020500002E008C8121F08C1002AFAD17047704771
:10206000002001E001C1121F002AFBD170470000CF
:102070002DE9FF4F8DB00F460546002606E02528C6
:102080000BD0DDE90F1290476D1C761C28780028D4
:10209000F5D111B03046BDE8F08F0024A246A1462C
:1020A0000122E94900E0044315F8013F203B02FA10
:1020B00003F00842F7D128782A2810D06FF02F02B9
:1020C0002878A0F13001092914D80AEB8A0102EB23
:1020D000410144F0020400EB010A6D1CF0E701CF5E
:1020E0005FEA000A03D544F40054CAF1000A44F040
:1020F00002046D1C28782E2817D115F8010F44F022
:1021000004042A280ED06FF02F022878A0F13001A5
:1021100009290AD809EB890102EB410100EB010909
:102120006D1CF2E757F8049B6D1C28786C280FD0C3
:1021300006DC4C2817D068280DD06A2814D104E09A
:10214000742810D07A280FD10DE044F400140AE06E
:1021500044F4801401E044F440146978814202D1CF
:1021600004F580146D1C6D1C28786E281ED00CDCC4
:10217000632830D004DC00288BD0582811D19FE090
:10218000642867D069280CD164E073282DD004DC62
:102190006F2872D0702804D194E075286ED078280A
:1021A0006DD0DDE90F129047761C4BE1C4F302506D
:1021B000022806D0032809D0042801CF09D00660E0
:1021C00040E101CFF117C0E900613BE101CF06809A
:1021D00038E1067036E117F8040B8DF80000002096
:1021E0008DF80100EB46012003E057F804BB4FF0E7
:1021F000FF3061074FF0000102D40DE008F101014A
:10220000884649450FDA8045F8DB1BF8081000299D
:10221000F4D108E008F1010188468142FADB1BF89D
:1022200008100029F6D1DDE90F23AAEB080081464A
:10223000214600F031F9304400EB080604E0DDE906
:102240000F121BF8010B9047B8F10108F7D2214695
:102250004846F2E00A21C4F302524FF0000B089105
:10226000022A04D001CFC117032A09D00AE0FF1DBA
:1022700027F00707F7E8020108E02CE01EE01FE066
:1022800000B2C117042A01D140B2C117021E71F178
:10229000000206DA0023D0EB030063EB01012D22DC
:1022A00002E0220504D52B228DF82420012203E030
:1022B000E20701D02022F7E7904653E00A210BE025
:1022C000102109E010214FF0000B44F004044FF0FE
:1022D0000809089103E008214FF0000B0891C4F3AE
:1022E0000252022A04D001CF0021032A06D006E0C0
:1022F000FF1D27F00707F7E8020103E080B2042A78
:1023000000D1C0B24FF0000822072BD52A78702ADE
:1023100007D0DDF820C08CF0100C5CEA0B0C05D067
:102320000EE040228DF82420012208E050EA01034B
:1023300006D030238DF824308DF8252002229046D7
:10234000089B83F0080353EA0B030BD150EA010208
:1023500001D1620706D530228DF824204FF0010804
:10236000A9F101092A78582A04D038A20B9208AAA8
:102370000A920BE03AA2F9E75B46089AFDF754FF90
:102380000B9B9B5C0A9A521E0A92137050EA010240
:10239000F2D10A98ADEB000000F1200B600702D5E6
:1023A00024F4803401E04FF00109D94502DDA9EBA6
:1023B0000B0000E0002000EB0B0141440890AAEB69
:1023C000010AE00306D4DDE90F232146504600F060
:1023D00063F806444FF0000908E009A911F8090064
:1023E000DDE90F12904709F10109761CC145F4DBC4
:1023F000E0030CD5DDE90F232146504600F04CF8F0
:10240000064404E0DDE90F1230209047761C08995D
:10241000481E08900029F5DC08E00A980A9900781F
:10242000491C0A91DDE90F129047761CBBF10001AF
:10243000ABF1010BF1DC21465046DDE90F2300F042
:1024400019F806446D1C21E60928010030313233A9
:1024500034353637383961626364656600000000E0
:1024600030313233343536373839414243444546CA
:10247000000000002DE9F041044600251E461746E5
:10248000880404D405E039462020B0476D1C641E42
:10249000F9D52846BDE8F0812DE9F0410446002534
:1024A0001E469046C80301D5302700E02027880447
:1024B00004D505E041463846B0476D1C641EF9D589
:1024C0002846BDE8F0810A68531C0B601070704705
:1024D00013B54FF0FF33012269460248FEF758FF5B
:1024E00000981CBDE0000020FEF79CFAFFF716FCE8
:1024F000FFF78EF9FFF700F9FDF7DAFFFFF768F94C
:10250000FFF7F0F9FDF7E4FEFFF72CF900F00EF805
:10251000FEE701460020842900D0C81C704710B592
:1025200000B9012000F0CCFB002010BD10B500F078
:1025300013FC002010BD38B5D0E9011204683AB18F
:10254000C3682BB100200090204600F0E6FC38BDA7
:102550002046BDE83840002200F0BEBC7FB50D46E5
:1025600004464169B0F9080081B1A16971B1FFF772
:10257000D0FFD4E905128DE80700D4E900102B46FE
:10258000226900F0F4FE039004B070BDFFF7C1FFB4
:1025900003A9CDE90001208A2B4682B2D4E90010BC
:1025A00000F0B8FE012801D00020EDE70398EBE72A
:1025B0002DE9F041184C0F460546E6682068001DDD
:1025C00000F0B6FA38B9206890F82C100120884045
:1025D000216981432161681C07D137B12168BDE8B9
:1025E000F0410E48091D00F0E7BA20683544B542B5
:1025F0004560216805D2A06BBDE8F041091D00F0DF
:10260000C3BA606B091D00F0BFFAA06A854200D210
:10261000A562BDE8F081000020000020A004002099
:102620002DE9F041054600F0D3FA2E4CA068401C7D
:10263000A06020682C4F10B1606940B32DE0256088
:10264000A068012829D1002606EB860007EB800050
:1026500000F08CFA761C072EF6D323488C3000F05D
:1026600085FA2148A03000F081FA1F48B43000F00C
:102670007DFA1D48C83000F079FA1B48DC3000F0C4
:1026800075FA19488C3060631430A06305E0206847
:10269000E96AC06A884200D82560606A401C6062AE
:1026A000E96A0120226988401043206101EB810022
:1026B00007EB8000291D00F07FFA00F0A9FA60699D
:1026C00000280CD02068E96AC06A884207D207490E
:1026D0004FF080500860BFF34F8FBFF36F8FBDE89E
:1026E000F081000020000020C403002004ED00E081
:1026F00030B4026C0B46002A0BD0C1681144C16093
:102700008468A14201D30168C16030BC1846FDF75E
:1027100067BD30BC70472DE9F041856B1746044614
:102720000026026C82B1C7B1E068FDF759FDE1688F
:10273000206C091AE1602268914202D2A168081A4D
:10274000E060022F16D017E02068A8B9A06800F05A
:10275000ADFE06460020A0600EE06068FDF740FD7B
:10276000216C606808446060A168884204D32068D6
:10277000606001E005B16D1E6D1CA5633046BDE8CB
:10278000F08110B5044690F8510058B101280CD0E2
:1027900002280FD0502080F31188BFF34F8FBFF372
:1027A0006F8FFEE7206B00F047FA2046BDE810402F
:1027B00000F042BA10BD000010484FF440614207DB
:1027C00006D0C01D0D4920F00700411AC1F5406137
:1027D0000B4A00230144C2E900030839183A21F0EA
:1027E000070111604B600B600B1AC0E90013936086
:1027F0004FF000405360506170470000B404002067
:1028000074000020144E154CA6F1C8074FF08058F4
:10281000DFF84C9012E000BF00F0DAF9F068C5680C
:10282000281D00F085F9A068401EA0606068401E69
:10283000606000F0EDF92846FFF7A3FF606800280C
:10284000EAD138680128F9D9C9F80080BFF34F8F61
:10285000BFF36F8FF2E700008C04002020000020FF
:1028600004ED00E00346009829B10260C0E90F3191
:10287000012100F085BB0060F8E72DE9F0479A469A
:10288000DDE9098481466FF00303206B03EB8202CC
:102890001044089E20F00707780707D0502080F3E7
:1028A0001188BFF34F8FBFF36F8FFEE7002561B133
:1028B000002023180A5C83F834200A5C12B1401C03
:1028C0001028F6D384F8435001E084F83450072EE2
:1028D00000D30626E662C4E91165201D00F051F917
:1028E00004F1180000F04DF92461C6F1070064629C
:1028F000A061E56484F8505052464946384600F0DD
:1029000005F92060B8F1000F01D0C8F80040BDE81B
:10291000F087000030B5114900E011460A68824294
:10292000FBD34B685C18844203D14068184448606C
:10293000084643681C18944209D1084C183C246886
:10294000A24209D052681A4442600A6812680260C2
:10295000814200D0086030BD0460F9E774000020B7
:1029600010B5044600F034F9A06B28B15FF0000404
:1029700000F04EF9204610BD0124F9E70648416BEE
:10298000096829B1416BC968C968496881627047A3
:102990004FF0FF31FAE700002000002008484068AF
:1029A000401C4FF0500080F3118804D0BFF34F8FCC
:1029B000BFF36F8FFEE7BFF34F8FBFF36F8FFEE75D
:1029C0007C0000202DE9F041044600F001F994F963
:1029D000455004F1240609E0606A48B1304600F031
:1029E000B1FD08B100F09AF96D1E6DB2002DF3DC57
:1029F0004FF0FF3684F8456000F00AF900F0E8F87F
:102A000094F9445004F1100709E0206948B13846B0
:102A100000F098FD08B100F081F96D1E6DB2002D37
:102A2000F3DC84F84460BDE8F04100F0F1B8000048
:102A30002DE9F0410546002700F0C4F9324E306818
:102A400008B9FFF7B9FE706905424ED1C5B3083524
:102A500068070ED005F00700C0F1080005446807BC
:102A600007D0502080F31188BFF34F8FBFF36F8FD3
:102A7000FEE72DB37068854237D8234818300146E9
:102A80000C6801E020460C466168A94202D2216828
:102A90000029F7D131688C4227D00768216801608E
:102AA00060680837411B10290FD96019420708D008
:102AB000502080F31188BFF34F8FBFF36F8FFEE775
:102AC00013E041606560FFF725FF61687068401A98
:102AD0007060B268904200D2B0607069014300201B
:102AE000C4E90001F068401CF06000F065FD780763
:102AF00007D0502080F31188BFF34F8FBFF36F8F43
:102B0000FEE73846BDE8F0815C00002010B5031FE9
:102B10004FF080741C601B1F21F001011960191F08
:102B2000024B0B60143940380A6010BD9D29000823
:102B3000D0E9013201699A60D0E901235A604A68FC
:102B4000824201D182684A60002202610868401E08
:102B50000860086870470000034B036003F15400ED
:102B600008608020106070472801002000F10801F3
:102B70004FF0FF32C0E90112C16001610021016024
:102B8000704700210161704730B50B685A1C02D0B4
:102B900000F1080202E0026904E022465468256858
:102BA0009D42FAD953684B6099608A605160086110
:102BB0000168491C016030BD42684A6093688B60BF
:102BC00093685960916008610168491C0160704711
:102BD000502080F31188BFF34F8FBFF36F8F0A49E6
:102BE0004868401C486001280CD10848006810F073
:102BF000FF0F07D0502080F31188BFF34F8FBFF332
:102C00006F8FFEE7704700007C00002004ED00E0BD
:102C10000849486828B1401E486001D180F31188F6
:102C20007047502080F31188BFF34F8FBFF36F8F31
:102C3000FEE700007C00002070B500282AD0164D69
:102C4000A0F1080460686969084207D1502080F348
:102C50001188BFF34F8FBFF36F8FFEE722683AB141
:102C6000502080F31188BFF34F8FBFF36F8FFEE7C3
:102C70008843606000F0A6F860686968084468608E
:102C80002046FFF747FE2869401C2861BDE87040D8
:102C900000F092BC70BD00005C0000204FF0E0200E
:102CA00000210161816105494FF47A720968B1FB25
:102CB000F2F1491E41610721016170471C000020AB
:102CC00010B5020014D00F48006B38B1502080F3CB
:102CD0001188BFF34F8FBFF36F8FFEE700F072F8DC
:102CE00000211046FFF764FC00F066FC002807D1C5
:102CF00005494FF080500860BFF34F8FBFF36F8FCF
:102D000010BD00002000002004ED00E002490A6A26
:102D10000260C9684160704720000020014901201D
:102D2000C86170472000002010B50C4650B1094919
:102D300009681831FFF728FF2046BDE8104001213F
:102D4000FFF736BC502080F31188BFF34F8FBFF3DD
:102D50006F8FFEE72000002010B586B0002403949A
:102D600005AA04A903A80494FFF7F6FEDDE9030110
:102D70000094CDE9011000230EA11048059A00F03F
:102D8000F6FA0F490028C86211D0502080F311884C
:102D9000BFF34F8FBFF36F8F4FF0FF30886201207A
:102DA0004861CC6006B0BDE8104000F041B806B004
:102DB00010BD000049444C450000000005280008F3
:102DC000200000200248016B491C0163704700008D
:102DD000200000201448016B11B10121C16170472E
:102DE0000021C1610169B1FA81F1C1F11F0101EB5B
:102DF00081020E4951F822306BB101EB820101F1E1
:102E000008034A6852684A609A4201D152684A608F
:102E1000D16801607047502080F31188BFF34F8F55
:102E2000BFF36F8FFEE7000020000020C4030020E6
:102E30001CB5264908780190FF20087008788DF8A5
:102E400000009DF800009DF8002000F0F000904286
:102E500007D0502080F31188BFF34F8FBFF36F8FDF
:102E6000FEE79DF800001A4C00F05000207007208B
:102E7000A06005E09DF8002052008DF80020401E63
:102E80009DF800201206F5D4A060032807D050203A
:102E900080F31188BFF34F8FBFF36F8FFEE74FF4BE
:102EA0004070A060019808700A48016841F4700100
:102EB0000160016841F070410160FFF7EFFE002002
:102EC0006060FDF731F900201CBD000000E400E067
:102ED0007C00002020ED00E0F8B517460E46050006
:102EE00013D005FB06F04830FFF7A2FD04000AD01E
:102EF000002084F8460004F148023B46314628464B
:102F00000094FFF7AFFC2046F8BD502080F31188F5
:102F1000BFF34F8FBFF36F8FFEE738B5049D18B135
:102F200053B1CAB181B120E0502080F31188BFF3C2
:102F30004F8FBFF36F8FFEE7502080F31188BFF3F0
:102F40004F8FBFF36F8FFEE7502080F31188BFF3E0
:102F50004F8FBFF36F8FFEE739B1502080F3118898
:102F6000BFF34F8FBFF36F8FFEE748241C4601234A
:102F700084F846302B460094FFF774FC204638BD99
:102F800070B50D46040025D0FFF722FED4E90F20CE
:102F9000216802FB0011A1600021A163216861602A
:102FA0000A46D4E90F01401E00FB0121E1602146E1
:102FB0004FF0FF3001F8440F487004F110008DB15C
:102FC000FFF7D4FD04F12400FFF7D0FDFFF720FE4A
:102FD000012070BD502080F31188BFF34F8FBFF3E5
:102FE0006F8FFEE721690029F0D000F0ABFA0028CE
:102FF000ECD004494FF080500860BFF34F8FBFF30F
:103000006F8FE3E704ED00E02DE9FF4782B01D4636
:103010008A464FF00008040003D0BAF1000F08D030
:1030200011E0502080F31188BFF34F8FBFF36F8FF3
:10303000FEE7206C38B1502080F31188BFF34F8F2A
:10304000BFF36F8FFEE7022D0AD1E06B012807D096
:10305000502080F31188BFF34F8FBFF36F8FFEE7CF
:1030600000F0B0F93F4F4FF000094FF0805648B9DB
:10307000049838B1502080F31188BFF34F8FBFF30D
:103080006F8FFEE7FFF7A4FDA06BE16B884207D3CB
:10309000022D05D00498D0B1B8F1000F1AD01EE06F
:1030A0002A4651462046FFF736FB616A19B104F102
:1030B000240000F047FA20B13E60BFF34F8FBFF30A
:1030C0006F8FFFF7A5FD012006B0BDE8F087FFF781
:1030D0009FFD22E06846FFF719FE4FF00108FFF759
:1030E00097FDFFF76FFEFFF773FD94F94400401C56
:1030F00001D184F8449094F94500401C01D184F832
:103100004590FFF785FD04A9684600F0C9F830B185
:103110002046FFF757FC00F04FFA0020D4E7FFF7F6
:1031200057FDA06BE16B884213D1FFF771FD04F1ED
:1031300010000499FFF7F8FD2046FFF743FC00F06C
:103140003BFA00289ED13E60BFF34F8FBFF36F8FD5
:1031500098E7FFF75DFD2046FFF734FC00F02CFAFE
:1031600090E7000004ED00E02DE9F747002683B06A
:103170008A46040003D0BAF1000F08D011E05020B5
:1031800080F31188BFF34F8FBFF36F8FFEE7206C82
:1031900038B1502080F31188BFF34F8FBFF36F8F8A
:1031A000FEE700F00FF9DFF8F4804FF000094FF070
:1031B000805748B9059838B1502080F31188BFF383
:1031C0004F8FBFF36F8FFEE7FFF702FDA56BC5B111
:1031D00051462046FFF78CFA6D1EA563206950B159
:1031E00004F1100000F0AEF928B1C8F80070BFF388
:1031F0004F8FBFF36F8FFFF70BFD012006B0BDE8C7
:10320000F087059808B11EB106E0FFF701FD27E041
:103210006846FFF77BFD0126FFF7FAFCFFF7D2FDBA
:10322000FFF7D6FC94F94400401C01D184F8449087
:1032300094F94500401C01D184F84590FFF7E8FC63
:1032400005A9684600F02CF8002820460AD0FFF7B0
:10325000B9FB00F0B1F92046FFF782FB0028B3D09C
:103260000020CBE7FFF77CFB90B104F12400059927
:10327000FFF75AFD2046FFF7A5FB00F09DF9002857
:10328000A2D1C8F80070BFF34F8FBFF36F8F9BE7D9
:103290002046FFF797FB00F08FF995E704ED00E07B
:1032A0002DE9F0410C46050011D0C4B1FFF790FCA8
:1032B000174BDA686E682068911B471C17D02F687F
:1032C0001B6A9F4219D0964217D8012410E0502063
:1032D00080F31188BFF34F8FBFF36F8FFEE750204D
:1032E00080F31188BFF34F8FBFF36F8FFEE7002489
:1032F000FFF78EFC2046BDE8F081884205D9401AD0
:1033000020602846FFF702FDF1E700202060DCE79F
:10331000200000202DE9FF5F8346DDE90E879946F6
:1033200016468A469000FFF783FB05001CD0542008
:10333000FFF77EFB040014D00020256384F85100C1
:10334000CDE90240CDE900874B463246514658460A
:10335000FFF793FA2046FFF763F9012004B0BDE8B8
:10336000F09F2846FFF768FC4FF0FF30F6E7F0B516
:1033700085B0DDE90B640A9DA6B1DCB15427009746
:103380002663022684F85160002604AFCDE9024688
:10339000CDE90057FFF771FA2046FFF741F904988D
:1033A00005B0F0BD502080F31188BFF34F8FBFF3FD
:1033B0006F8FFEE7502080F31188BFF34F8FBFF36C
:1033C0006F8FFEE70548416919B1006B18B1002005
:1033D0007047012070470220704700002000002045
:1033E0002DE9F0412F4C0026206B28B1A069401C2C
:1033F000A0613046BDE8F081E5686D1CE56013D141
:10340000606B006838B1502080F31188BFF34F8F94
:10341000BFF36F8FFEE7606BA16B6163A063206AEF
:10342000401C2062FFF7AAFAA06ADFF87C80854280
:1034300009D3606B0068A0B1606BC068C76878682A
:10344000854211D2A0622068C06A00EB800158F862
:103450002100012800D90126E0690028C9D00126F1
:10346000C7E74FF0FF30EDE7381DFFF761FBB86AA3
:1034700018B107F11800FFF75BFBF96A0120226918
:1034800088401043206101EB810108EB8100391D68
:10349000FFF792FBF86A2168C96A8842C9D30126FE
:1034A000C7E7000020000020C403002070B504001E
:1034B0004FF0000140D0214D2868844207D05020B1
:1034C00080F31188BFF34F8FBFF36F8FFEE7A06CBF
:1034D00038B1401EA064636CE26A9A422CD040B1BD
:1034E0002AE0502080F31188BFF34F8FBFF36F8F16
:1034F000FEE7201DFFF71CFB114A012150B9E06ACD
:1035000000EB800352F8233023B92B6901FA00F055
:1035100083432B61606CE062C0F10700A061E06A48
:103520002B6981401943296100EB800002EB800088
:10353000211DFFF741FB0121084670BD200000203E
:10354000C40300202DE9F041C068C468ACB104F1A7
:1035500018000746FFF7ECFA154D286B0126A0B1BD
:1035600039461448FFF728FBE06A2968C96A88428F
:103570001CD90120EE61BDE8F081502080F3118854
:10358000BFF34F8FBFF36F8FFEE7201DFFF7D0FA19
:10359000E16A2A6906FA01F01043286101EB810013
:1035A0000449B43901EB8000211DDBE70020E2E78C
:1035B00020000020780400202DE9F0472C4D002445
:1035C0002746286B38B1FFF703FB286B401E2863A2
:1035D000286B40B146E0502080F31188BFF34F8F35
:1035E000BFF36F8FFEE7A968224E0120D1B3A6F189
:1035F000B40980463068E8B1F068C46804F1180086
:10360000FFF796FA201DFFF793FAE06A2A6908FA95
:1036100000F11143296100EB800109EB8100211DBC
:10362000FFF7CAFAE06A2968C96A8842E2D3C5F896
:103630001C80DFE70CB1FFF7A1F9AC6944B1464645
:10364000FFF7CEFE00B1EE61641EF9D10020A86143
:10365000E86938B10849012738070860BFF34F8F80
:10366000BFF36F8FFFF7D4FA3846BDE8F08700004C
:10367000200000207804002004ED00E0048484FC95
:10368000848400040484E41C840404002060201F5B
:10369000101004020100FF00000106001010FF10CE
:1036A0001020A4ACB5A6B4ACA420200010301F0894
:1036B00088804F3A0A0A7A8A8F80E0001010D0FF83
:1036C000905020504C434C5020404000040300FFD9
:1036D00000414458414E6058474040001060028C01
:1036E00000FE02F202FE00F800FF000004047E016A
:1036F0008047300F10270047807F00001060028C49
:103700000000FE9292929292FE00000004047E015C
:10371000407E42427E427E42427E40000000FC24C7
:103720002424FC252624FC242424040040308F80FB
:10373000844C55252525554C808080001060028CD6
:1037400000FE929292929292FE00000004047E018A
:103750004448507F40407F50484440000000FC24D3
:103760002424FC252624FC242424040040308F80BB
:10377000844C55252525554C808080000000000094
:10378000000000004C400000000202020000207C0B
:1037900028283E20006C4A7424000C523C7C527055
:1037A000304C7A6C50400002000000000000007CA9
:1037B000820000423C000000001838101800000091
:1037C0001018100000C000000000080808080808D1
:1037D000004000000000004030080600007C42422B
:1037E0007C000000447C0000006462524C000064D5
:1037F000424A7C000010287C2000006C4C4C700079
:10380000007C4A4A74000004641C0400007C4A5294
:103810007C00005C52523C00000048480000000060
:10382000C8000000001828244200001818181800CA
:10383000004224281800000462520C0018647A56D2
:103840006C1840301C1C7000007C54545C201864C0
:1038500042424224007C44442418007C54544400D6
:10386000007C14141C04384442426400007C101094
:103870007C0000007C440000808080FC0400007C10
:1038800008344000007C40404000704C70107C00C8
:10389000007C08103C00186442424438007C141438
:1038A0000C0438446242C438007C14146C00004C90
:1038B0004A52740004047C040404007C40407C00F0
:1038C000000C30300C00003C143C1C040044283830
:1038D00044000004780804000064544C44000000D4
:1038E000FE828000000608304000008082FE00005A
:1038F00000010101010080808080808000010100C2
:103900000000006058587040007E48487000007009
:1039100048484000007048487E4000706868500089
:1039200000087C0C0C0000F0E8E8D808007E0808CD
:103930007000000878400000008080887A00007ED7
:103940001038480000007E400000784848704870F9
:1039500008780808700000704848700008F8484867
:10396000700000704848F0000848700808000050D7
:103970005868680000087C48480008784040784053
:103980000818202018000838283838080048383827
:1039900048000098A06018080048685848000000D7
:1039A000007E8000000000FF000000807E0000001C
:1039B0000001010202000000000000000000000001
:1039C000000000000000000000F8000000000000FF
:1039D00000330000000000100C02100C0200000078
:1039E0000000000000000040C07840C078000004E3
:1039F0003F04043F040000708888FC083000001871
:103A00002020FF211E00F008F08060180000003127
:103A10000C031E211E0000F00888700000001E210B
:103A2000232C1927211000120E00000000000000B6
:103A3000000000000000000000E018040200000088
:103A400000071820400000020418E00000000040B9
:103A5000201807000000404080F080404000020233
:103A6000010F0102020000000000E0000000000160
:103A700001010F01010100000000000000000090A2
:103A800070000000000000000000000000000001C5
:103A900001010101010000000000000000000030F1
:103AA00030000000000000000000C038040000608A
:103AB00018070000000000E010080810E000000FE8
:103AC000102020100F0000001010F800000000006F
:103AD00020203F202000007008080808F000003077
:103AE00028242221300000300808088870000018BF
:103AF000202121221C000000804030F80000000638
:103B00000524243F242400F8888888080800001928
:103B1000202020110E0000E0108888900000000F87
:103B2000112020201F0000180808886818000000D5
:103B3000003E010000000070880808887000001C2A
:103B4000222121221C0000F008080810E0000001DA
:103B5000122222110F00000000C0C000000000006F
:103B60000030300000000000008000000000000075
:103B700000E000000000000080402010080000016C
:103B80000204081020000040404040404000000275
:103B90000202020202000008102040800000002003
:103BA0001008040201000070480808887000000036
:103BB000003037000000C030C828E810E0000718C7
:103BC00027282F2817000000C038E0000000203C04
:103BD00023020227382008F8888888700000203FD8
:103BE000202020110E00C0300808080838000718EF
:103BF00020202010080008F808080810E000203FE6
:103C0000202020100F0008F88888E8081000203FC6
:103C100020202320180008F88888E8081000203F9A
:103C2000200003000000C030080808380000071812
:103C30002020221E020008F808000008F808203F93
:103C4000210101213F20000808F808080000002099
:103C5000203F2020000000000808F8080800C0806D
:103C600080807F00000008F888C028180800203FE6
:103C700020012638200008F8080000000000203F3E
:103C800020202020300008F8F800F8F80800203F35
:103C9000013E013F200008F830C00008F808203F2E
:103CA000200007183F00E01008080810E0000F107F
:103CB000202020100F0008F808080808F000203F16
:103CC000210101010000E01008080810E0000F10B9
:103CD000282830504F0008F8888888887000203FD6
:103CE0002000030C302000708808080838000038D5
:103CF000202121221C00180808F8080818000000DC
:103D0000203F2000000008F808000008F808001F05
:103D1000202020201F000878880000C838080000F4
:103D200007380E01000008F800F800F8080000034A
:103D30003E013E03000008186880806818082030A3
:103D40002C03032C30200838C800C83808000000B5
:103D5000203F2000000010080808C838080020385C
:103D6000262120201800000000FE020202000000B0
:103D7000007F40404000000438C000000000000008
:103D800000010638C00000020202FE0000000040F0
:103D900040407F0000000000040202040000000018
:103DA0000000000000000000000000000000808013
:103DB00080808080808000020204000000000000FB
:103DC000000000000000000080808000000000195A
:103DD0002424123F200010F0008080000000003FEB
:103DE000112020110E000000008080800000000ED5
:103DF000112020201100000080808090F000001F22
:103E0000202020103F200000808080800000001FC4
:103E1000242424241700008080E0909020000020BB
:103E2000203F202000000000808080808000006B08
:103E300094949493600010F0008080800000203FF4
:103E4000210000203F200080989800000000002002
:103E5000203F20200000000000809898000000C053
:103E60008080807F000010F0000080808000203F74
:103E7000240629302000001010F800000000002067
:103E8000203F202000008080808080808000203FB4
:103E900020003F20003F8080008080800000203F85
:103EA000210000203F200000808080800000001F53
:103EB000202020201F00808000808000000080FFE4
:103EC000912020110E000000008080008000000E74
:103ED00011202091FF808080800080808000202041
:103EE0003F2120000100000080808080800000339E
:103EF000242424241900008080E080800000000039
:103F0000001F202010008080000000808000001F23
:103F1000202020103F2080808000808080000003CF
:103F20000C300C0300008080008080008080010E37
:103F3000300C07380601008080800080800000205F
:103F4000310E2E3120008080800000808080008132
:103F50008678180601000080808080808000002123
:103F6000302C222130000000000000FC0202000082
:103F70000000013E404000000000FF000000000083
:103F80000000FF0000000202FC00000000004040B2
:103F90003E010000000000020102020402000000D5
:103FA000000000000000000054400008951C0008BC
:103FB0000000000000000000800000000000000081
:103FC0000000000038400008BD1C0008FDFF000094
:103FD0000000000080000000000000000000000061
:103FE00044400008E91C0008FDFF0000000000003C
:103FF000800000000000000000000000020000003F
:1040000005000000000000000000000001020203A3
:104010000405060708090A0B0C0D0E0F101000000E
:104020000000000000000102030406070809000068
:1040300000000102030400005461736B5F6F6C6544
:10404000640000005461736B5F636F6E74726F6C19
:10405000000000005461736B5F73656E736F7200D4
:1040600080400008000000208C0000005020000864
:104070000C4100088C0000202C1400006020000877
:104080000000000000000000000000000000000030
:1040900001000000100000000000000000127A0083
:1040A0000000000000000000000000000000000010
:1040B0000000000000000000000000000000000000
:1040C00000000000000000000000000000000000F0
:1040D00000000000000000000000000000000000E0
:1040E00000000000000000000000000000000000D0
:1040F00000000000000000000000000000000000C0
:0C410000AAAAAAAA00000000000000000B
:04000005080000ED02
:00000001FF
